{
    "abi": [
        {
            "type": "function",
            "name": "DEFAULT_ADMIN_ROLE",
            "inputs": [],
            "outputs": [
                {
                    "name": "",
                    "type": "bytes32",
                    "internalType": "bytes32"
                }
            ],
            "stateMutability": "view"
        },
        {
            "type": "function",
            "name": "DNSResolver",
            "inputs": [],
            "outputs": [
                {
                    "name": "",
                    "type": "address",
                    "internalType": "contract IDNSResolver"
                }
            ],
            "stateMutability": "view"
        },
        {
            "type": "function",
            "name": "ROOT_KMS_KEY_ROLE",
            "inputs": [],
            "outputs": [
                {
                    "name": "",
                    "type": "bytes32",
                    "internalType": "bytes32"
                }
            ],
            "stateMutability": "view"
        },
        {
            "type": "function",
            "name": "SET_RECORDS_TYPEHASH",
            "inputs": [],
            "outputs": [
                {
                    "name": "",
                    "type": "bytes32",
                    "internalType": "bytes32"
                }
            ],
            "stateMutability": "view"
        },
        {
            "type": "function",
            "name": "UPGRADE_INTERFACE_VERSION",
            "inputs": [],
            "outputs": [
                {
                    "name": "",
                    "type": "string",
                    "internalType": "string"
                }
            ],
            "stateMutability": "view"
        },
        {
            "type": "function",
            "name": "domainController",
            "inputs": [],
            "outputs": [
                {
                    "name": "",
                    "type": "address",
                    "internalType": "contract IDomainController"
                }
            ],
            "stateMutability": "view"
        },
        {
            "type": "function",
            "name": "eip712Domain",
            "inputs": [],
            "outputs": [
                {
                    "name": "fields",
                    "type": "bytes1",
                    "internalType": "bytes1"
                },
                {
                    "name": "name",
                    "type": "string",
                    "internalType": "string"
                },
                {
                    "name": "version",
                    "type": "string",
                    "internalType": "string"
                },
                {
                    "name": "chainId",
                    "type": "uint256",
                    "internalType": "uint256"
                },
                {
                    "name": "verifyingContract",
                    "type": "address",
                    "internalType": "address"
                },
                {
                    "name": "salt",
                    "type": "bytes32",
                    "internalType": "bytes32"
                },
                {
                    "name": "extensions",
                    "type": "uint256[]",
                    "internalType": "uint256[]"
                }
            ],
            "stateMutability": "view"
        },
        {
            "type": "function",
            "name": "getDomainManagerRole",
            "inputs": [
                {
                    "name": "domain_id",
                    "type": "bytes32",
                    "internalType": "bytes32"
                }
            ],
            "outputs": [
                {
                    "name": "",
                    "type": "bytes32",
                    "internalType": "bytes32"
                }
            ],
            "stateMutability": "pure"
        },
        {
            "type": "function",
            "name": "getDomainOwnerRole",
            "inputs": [
                {
                    "name": "domain_id",
                    "type": "bytes32",
                    "internalType": "bytes32"
                }
            ],
            "outputs": [
                {
                    "name": "",
                    "type": "bytes32",
                    "internalType": "bytes32"
                }
            ],
            "stateMutability": "pure"
        },
        {
            "type": "function",
            "name": "getRoleAdmin",
            "inputs": [
                {
                    "name": "role",
                    "type": "bytes32",
                    "internalType": "bytes32"
                }
            ],
            "outputs": [
                {
                    "name": "",
                    "type": "bytes32",
                    "internalType": "bytes32"
                }
            ],
            "stateMutability": "view"
        },
        {
            "type": "function",
            "name": "getRoleMember",
            "inputs": [
                {
                    "name": "role",
                    "type": "bytes32",
                    "internalType": "bytes32"
                },
                {
                    "name": "index",
                    "type": "uint256",
                    "internalType": "uint256"
                }
            ],
            "outputs": [
                {
                    "name": "",
                    "type": "address",
                    "internalType": "address"
                }
            ],
            "stateMutability": "view"
        },
        {
            "type": "function",
            "name": "getRoleMemberCount",
            "inputs": [
                {
                    "name": "role",
                    "type": "bytes32",
                    "internalType": "bytes32"
                }
            ],
            "outputs": [
                {
                    "name": "",
                    "type": "uint256",
                    "internalType": "uint256"
                }
            ],
            "stateMutability": "view"
        },
        {
            "type": "function",
            "name": "getRoleMembers",
            "inputs": [
                {
                    "name": "role",
                    "type": "bytes32",
                    "internalType": "bytes32"
                }
            ],
            "outputs": [
                {
                    "name": "",
                    "type": "address[]",
                    "internalType": "address[]"
                }
            ],
            "stateMutability": "view"
        },
        {
            "type": "function",
            "name": "grantRole",
            "inputs": [
                {
                    "name": "role",
                    "type": "bytes32",
                    "internalType": "bytes32"
                },
                {
                    "name": "account",
                    "type": "address",
                    "internalType": "address"
                }
            ],
            "outputs": [],
            "stateMutability": "nonpayable"
        },
        {
            "type": "function",
            "name": "hasRole",
            "inputs": [
                {
                    "name": "role",
                    "type": "bytes32",
                    "internalType": "bytes32"
                },
                {
                    "name": "account",
                    "type": "address",
                    "internalType": "address"
                }
            ],
            "outputs": [
                {
                    "name": "",
                    "type": "bool",
                    "internalType": "bool"
                }
            ],
            "stateMutability": "view"
        },
        {
            "type": "function",
            "name": "initialize",
            "inputs": [
                {
                    "name": "_controller",
                    "type": "address",
                    "internalType": "address"
                },
                {
                    "name": "_resolver",
                    "type": "address",
                    "internalType": "address"
                },
                {
                    "name": "_rootKMSKey",
                    "type": "address",
                    "internalType": "address"
                }
            ],
            "outputs": [],
            "stateMutability": "nonpayable"
        },
        {
            "type": "function",
            "name": "isDomainEncumbered",
            "inputs": [
                {
                    "name": "domain_id",
                    "type": "bytes32",
                    "internalType": "bytes32"
                }
            ],
            "outputs": [
                {
                    "name": "",
                    "type": "bool",
                    "internalType": "bool"
                }
            ],
            "stateMutability": "view"
        },
        {
            "type": "function",
            "name": "kmsContracts",
            "inputs": [
                {
                    "name": "",
                    "type": "bytes32",
                    "internalType": "bytes32"
                }
            ],
            "outputs": [
                {
                    "name": "",
                    "type": "address",
                    "internalType": "address"
                }
            ],
            "stateMutability": "view"
        },
        {
            "type": "function",
            "name": "kmsKeys",
            "inputs": [
                {
                    "name": "",
                    "type": "bytes32",
                    "internalType": "bytes32"
                }
            ],
            "outputs": [
                {
                    "name": "",
                    "type": "address",
                    "internalType": "address"
                }
            ],
            "stateMutability": "view"
        },
        {
            "type": "function",
            "name": "onERC721Received",
            "inputs": [
                {
                    "name": "operator",
                    "type": "address",
                    "internalType": "address"
                },
                {
                    "name": "from",
                    "type": "address",
                    "internalType": "address"
                },
                {
                    "name": "tokenId",
                    "type": "uint256",
                    "internalType": "uint256"
                },
                {
                    "name": "data",
                    "type": "bytes",
                    "internalType": "bytes"
                }
            ],
            "outputs": [
                {
                    "name": "",
                    "type": "bytes4",
                    "internalType": "bytes4"
                }
            ],
            "stateMutability": "nonpayable"
        },
        {
            "type": "function",
            "name": "proxiableUUID",
            "inputs": [],
            "outputs": [
                {
                    "name": "",
                    "type": "bytes32",
                    "internalType": "bytes32"
                }
            ],
            "stateMutability": "view"
        },
        {
            "type": "function",
            "name": "removeKMSKey",
            "inputs": [
                {
                    "name": "domain_id",
                    "type": "bytes32",
                    "internalType": "bytes32"
                }
            ],
            "outputs": [],
            "stateMutability": "nonpayable"
        },
        {
            "type": "function",
            "name": "renounceRole",
            "inputs": [
                {
                    "name": "role",
                    "type": "bytes32",
                    "internalType": "bytes32"
                },
                {
                    "name": "callerConfirmation",
                    "type": "address",
                    "internalType": "address"
                }
            ],
            "outputs": [],
            "stateMutability": "nonpayable"
        },
        {
            "type": "function",
            "name": "retrieveDomain",
            "inputs": [
                {
                    "name": "domain_id",
                    "type": "bytes32",
                    "internalType": "bytes32"
                },
                {
                    "name": "to",
                    "type": "address",
                    "internalType": "address"
                }
            ],
            "outputs": [],
            "stateMutability": "nonpayable"
        },
        {
            "type": "function",
            "name": "revokeRole",
            "inputs": [
                {
                    "name": "role",
                    "type": "bytes32",
                    "internalType": "bytes32"
                },
                {
                    "name": "account",
                    "type": "address",
                    "internalType": "address"
                }
            ],
            "outputs": [],
            "stateMutability": "nonpayable"
        },
        {
            "type": "function",
            "name": "setDNSRecords",
            "inputs": [
                {
                    "name": "domain_id",
                    "type": "bytes32",
                    "internalType": "bytes32"
                },
                {
                    "name": "records",
                    "type": "bytes",
                    "internalType": "bytes"
                },
                {
                    "name": "sig",
                    "type": "bytes",
                    "internalType": "bytes"
                }
            ],
            "outputs": [],
            "stateMutability": "nonpayable"
        },
        {
            "type": "function",
            "name": "setKMSContract",
            "inputs": [
                {
                    "name": "domain_id",
                    "type": "bytes32",
                    "internalType": "bytes32"
                },
                {
                    "name": "kmsContract",
                    "type": "address",
                    "internalType": "address"
                }
            ],
            "outputs": [],
            "stateMutability": "nonpayable"
        },
        {
            "type": "function",
            "name": "setKMSKey",
            "inputs": [
                {
                    "name": "domain_id",
                    "type": "bytes32",
                    "internalType": "bytes32"
                },
                {
                    "name": "kmsSigner",
                    "type": "address",
                    "internalType": "address"
                },
                {
                    "name": "proof",
                    "type": "bytes",
                    "internalType": "bytes"
                }
            ],
            "outputs": [],
            "stateMutability": "nonpayable"
        },
        {
            "type": "function",
            "name": "setWhoIsDelegatee",
            "inputs": [
                {
                    "name": "domain_id",
                    "type": "bytes32",
                    "internalType": "bytes32"
                },
                {
                    "name": "delegatee",
                    "type": "address",
                    "internalType": "address"
                }
            ],
            "outputs": [],
            "stateMutability": "nonpayable"
        },
        {
            "type": "function",
            "name": "supportsInterface",
            "inputs": [
                {
                    "name": "interfaceId",
                    "type": "bytes4",
                    "internalType": "bytes4"
                }
            ],
            "outputs": [
                {
                    "name": "",
                    "type": "bool",
                    "internalType": "bool"
                }
            ],
            "stateMutability": "view"
        },
        {
            "type": "function",
            "name": "upgradeToAndCall",
            "inputs": [
                {
                    "name": "newImplementation",
                    "type": "address",
                    "internalType": "address"
                },
                {
                    "name": "data",
                    "type": "bytes",
                    "internalType": "bytes"
                }
            ],
            "outputs": [],
            "stateMutability": "payable"
        },
        {
            "type": "event",
            "name": "DNSRecordsSet",
            "inputs": [
                {
                    "name": "domain_id",
                    "type": "bytes32",
                    "indexed": false,
                    "internalType": "bytes32"
                },
                {
                    "name": "records",
                    "type": "bytes",
                    "indexed": false,
                    "internalType": "bytes"
                }
            ],
            "anonymous": false
        },
        {
            "type": "event",
            "name": "DomainReceived",
            "inputs": [
                {
                    "name": "operator",
                    "type": "address",
                    "indexed": false,
                    "internalType": "address"
                },
                {
                    "name": "from",
                    "type": "address",
                    "indexed": false,
                    "internalType": "address"
                },
                {
                    "name": "tokenId",
                    "type": "uint256",
                    "indexed": false,
                    "internalType": "uint256"
                },
                {
                    "name": "data",
                    "type": "bytes",
                    "indexed": false,
                    "internalType": "bytes"
                }
            ],
            "anonymous": false
        },
        {
            "type": "event",
            "name": "DomainRetrieved",
            "inputs": [
                {
                    "name": "domain_id",
                    "type": "bytes32",
                    "indexed": false,
                    "internalType": "bytes32"
                },
                {
                    "name": "to",
                    "type": "address",
                    "indexed": false,
                    "internalType": "address"
                }
            ],
            "anonymous": false
        },
        {
            "type": "event",
            "name": "EIP712DomainChanged",
            "inputs": [],
            "anonymous": false
        },
        {
            "type": "event",
            "name": "Initialized",
            "inputs": [
                {
                    "name": "version",
                    "type": "uint64",
                    "indexed": false,
                    "internalType": "uint64"
                }
            ],
            "anonymous": false
        },
        {
            "type": "event",
            "name": "KMSContractSet",
            "inputs": [
                {
                    "name": "domain_id",
                    "type": "bytes32",
                    "indexed": false,
                    "internalType": "bytes32"
                },
                {
                    "name": "kmsContract",
                    "type": "address",
                    "indexed": false,
                    "internalType": "address"
                }
            ],
            "anonymous": false
        },
        {
            "type": "event",
            "name": "KMSKeyRemoved",
            "inputs": [
                {
                    "name": "domain_id",
                    "type": "bytes32",
                    "indexed": false,
                    "internalType": "bytes32"
                }
            ],
            "anonymous": false
        },
        {
            "type": "event",
            "name": "KMSKeySet",
            "inputs": [
                {
                    "name": "domain_id",
                    "type": "bytes32",
                    "indexed": false,
                    "internalType": "bytes32"
                },
                {
                    "name": "kmsContract",
                    "type": "address",
                    "indexed": false,
                    "internalType": "address"
                },
                {
                    "name": "kmsSigner",
                    "type": "address",
                    "indexed": false,
                    "internalType": "address"
                }
            ],
            "anonymous": false
        },
        {
            "type": "event",
            "name": "RoleAdminChanged",
            "inputs": [
                {
                    "name": "role",
                    "type": "bytes32",
                    "indexed": true,
                    "internalType": "bytes32"
                },
                {
                    "name": "previousAdminRole",
                    "type": "bytes32",
                    "indexed": true,
                    "internalType": "bytes32"
                },
                {
                    "name": "newAdminRole",
                    "type": "bytes32",
                    "indexed": true,
                    "internalType": "bytes32"
                }
            ],
            "anonymous": false
        },
        {
            "type": "event",
            "name": "RoleGranted",
            "inputs": [
                {
                    "name": "role",
                    "type": "bytes32",
                    "indexed": true,
                    "internalType": "bytes32"
                },
                {
                    "name": "account",
                    "type": "address",
                    "indexed": true,
                    "internalType": "address"
                },
                {
                    "name": "sender",
                    "type": "address",
                    "indexed": true,
                    "internalType": "address"
                }
            ],
            "anonymous": false
        },
        {
            "type": "event",
            "name": "RoleRevoked",
            "inputs": [
                {
                    "name": "role",
                    "type": "bytes32",
                    "indexed": true,
                    "internalType": "bytes32"
                },
                {
                    "name": "account",
                    "type": "address",
                    "indexed": true,
                    "internalType": "address"
                },
                {
                    "name": "sender",
                    "type": "address",
                    "indexed": true,
                    "internalType": "address"
                }
            ],
            "anonymous": false
        },
        {
            "type": "event",
            "name": "Upgraded",
            "inputs": [
                {
                    "name": "implementation",
                    "type": "address",
                    "indexed": true,
                    "internalType": "address"
                }
            ],
            "anonymous": false
        },
        {
            "type": "event",
            "name": "WhoIsDelegateeSet",
            "inputs": [
                {
                    "name": "domain_id",
                    "type": "bytes32",
                    "indexed": false,
                    "internalType": "bytes32"
                },
                {
                    "name": "delegatee",
                    "type": "address",
                    "indexed": false,
                    "internalType": "address"
                }
            ],
            "anonymous": false
        },
        {
            "type": "error",
            "name": "AccessControlBadConfirmation",
            "inputs": []
        },
        {
            "type": "error",
            "name": "AccessControlUnauthorizedAccount",
            "inputs": [
                {
                    "name": "account",
                    "type": "address",
                    "internalType": "address"
                },
                {
                    "name": "neededRole",
                    "type": "bytes32",
                    "internalType": "bytes32"
                }
            ]
        },
        {
            "type": "error",
            "name": "AddressEmptyCode",
            "inputs": [
                {
                    "name": "target",
                    "type": "address",
                    "internalType": "address"
                }
            ]
        },
        {
            "type": "error",
            "name": "ECDSAInvalidSignature",
            "inputs": []
        },
        {
            "type": "error",
            "name": "ECDSAInvalidSignatureLength",
            "inputs": [
                {
                    "name": "length",
                    "type": "uint256",
                    "internalType": "uint256"
                }
            ]
        },
        {
            "type": "error",
            "name": "ECDSAInvalidSignatureS",
            "inputs": [
                {
                    "name": "s",
                    "type": "bytes32",
                    "internalType": "bytes32"
                }
            ]
        },
        {
            "type": "error",
            "name": "ERC1967InvalidImplementation",
            "inputs": [
                {
                    "name": "implementation",
                    "type": "address",
                    "internalType": "address"
                }
            ]
        },
        {
            "type": "error",
            "name": "ERC1967NonPayable",
            "inputs": []
        },
        {
            "type": "error",
            "name": "FailedCall",
            "inputs": []
        },
        {
            "type": "error",
            "name": "InvalidInitialization",
            "inputs": []
        },
        {
            "type": "error",
            "name": "NotInitializing",
            "inputs": []
        },
        {
            "type": "error",
            "name": "StringsInsufficientHexLength",
            "inputs": [
                {
                    "name": "value",
                    "type": "uint256",
                    "internalType": "uint256"
                },
                {
                    "name": "length",
                    "type": "uint256",
                    "internalType": "uint256"
                }
            ]
        },
        {
            "type": "error",
            "name": "UUPSUnauthorizedCallContext",
            "inputs": []
        },
        {
            "type": "error",
            "name": "UUPSUnsupportedProxiableUUID",
            "inputs": [
                {
                    "name": "slot",
                    "type": "bytes32",
                    "internalType": "bytes32"
                }
            ]
        }
    ],
    "bytecode": {
        "object": "0x60a06040523073ffffffffffffffffffffffffffffffffffffffff1660809073ffffffffffffffffffffffffffffffffffffffff168152503480156041575f5ffd5b50608051614def6100685f395f8181611d5601528181611dab0152611f6a0152614def5ff3fe6080604052600436106101d7575f3560e01c80636f0cfab611610101578063c0c53b8b11610094578063d547741f11610063578063d547741f146106f7578063db63689e1461071f578063e688d71414610749578063eaafa7dd14610771576101d7565b8063c0c53b8b1461062f578063c98052aa14610657578063ca15c87314610693578063ce9b19f2146106cf576101d7565b8063a217fddf116100d0578063a217fddf14610575578063a3246ad31461059f578063ad3cb1cc146105db578063b6c4f36814610605576101d7565b80636f0cfab6146104a357806384b0196e146104cd5780639010d07c146104fd57806391d1485414610539576101d7565b806336568abe116101795780634af4527f116101485780634af4527f1461040d5780634f1ef28614610435578063502f1b531461045157806352d1902d14610479576101d7565b806336568abe14610345578063374c364e1461036d5780633cf78c55146103955780634797cf04146103d1576101d7565b8063150b7a02116101b5578063150b7a021461027b578063248a9ca3146102b75780632f2ff15d146102f35780633222a7c71461031b576101d7565b8063014c8151146101db57806301ffc9a7146102175780630b75af7d14610253575b5f5ffd5b3480156101e6575f5ffd5b5061020160048036038101906101fc91906134e2565b6107ad565b60405161020e919061351c565b60405180910390f35b348015610222575f5ffd5b5061023d6004803603810190610238919061358a565b6107dc565b60405161024a91906135cf565b60405180910390f35b34801561025e575f5ffd5b5061027960048036038101906102749190613642565b6107ed565b005b348015610286575f5ffd5b506102a1600480360381019061029c9190613714565b610977565b6040516102ae91906137a7565b60405180910390f35b3480156102c2575f5ffd5b506102dd60048036038101906102d891906134e2565b610ada565b6040516102ea919061351c565b60405180910390f35b3480156102fe575f5ffd5b5061031960048036038101906103149190613642565b610b04565b005b348015610326575f5ffd5b5061032f610b26565b60405161033c919061381b565b60405180910390f35b348015610350575f5ffd5b5061036b60048036038101906103669190613642565b610b4a565b005b348015610378575f5ffd5b50610393600480360381019061038e9190613642565b610bc5565b005b3480156103a0575f5ffd5b506103bb60048036038101906103b691906134e2565b610cec565b6040516103c891906135cf565b60405180910390f35b3480156103dc575f5ffd5b506103f760048036038101906103f291906134e2565b610df2565b6040516104049190613843565b60405180910390f35b348015610418575f5ffd5b50610433600480360381019061042e9190613994565b610e22565b005b61044f600480360381019061044a9190613a1c565b610f63565b005b34801561045c575f5ffd5b50610477600480360381019061047291906134e2565b610f82565b005b348015610484575f5ffd5b5061048d6110ea565b60405161049a919061351c565b60405180910390f35b3480156104ae575f5ffd5b506104b761111b565b6040516104c49190613a96565b60405180910390f35b3480156104d8575f5ffd5b506104e1611140565b6040516104f49796959493929190613c0f565b60405180910390f35b348015610508575f5ffd5b50610523600480360381019061051e9190613c91565b611249565b6040516105309190613843565b60405180910390f35b348015610544575f5ffd5b5061055f600480360381019061055a9190613642565b611282565b60405161056c91906135cf565b60405180910390f35b348015610580575f5ffd5b506105896112f3565b604051610596919061351c565b60405180910390f35b3480156105aa575f5ffd5b506105c560048036038101906105c091906134e2565b6112f9565b6040516105d29190613d86565b60405180910390f35b3480156105e6575f5ffd5b506105ef611328565b6040516105fc9190613da6565b60405180910390f35b348015610610575f5ffd5b50610619611361565b604051610626919061351c565b60405180910390f35b34801561063a575f5ffd5b5061065560048036038101906106509190613dc6565b611385565b005b348015610662575f5ffd5b5061067d600480360381019061067891906134e2565b6115e5565b60405161068a9190613843565b60405180910390f35b34801561069e575f5ffd5b506106b960048036038101906106b491906134e2565b611615565b6040516106c69190613e16565b60405180910390f35b3480156106da575f5ffd5b506106f560048036038101906106f09190613e2f565b611643565b005b348015610702575f5ffd5b5061071d60048036038101906107189190613642565b61183e565b005b34801561072a575f5ffd5b50610733611860565b604051610740919061351c565b60405180910390f35b348015610754575f5ffd5b5061076f600480360381019061076a9190613642565b611884565b005b34801561077c575f5ffd5b50610797600480360381019061079291906134e2565b611a5c565b6040516107a4919061351c565b60405180910390f35b5f816040516020016107bf9190613f0f565b604051602081830303815290604052805190602001209050919050565b5f6107e682611a8b565b9050919050565b5f73ffffffffffffffffffffffffffffffffffffffff168173ffffffffffffffffffffffffffffffffffffffff160361085b576040517f08c379a000000000000000000000000000000000000000000000000000000000815260040161085290613f7e565b60405180910390fd5b5f61086583611a5c565b905061087881610873611b04565b611282565b6108b7576040517f08c379a00000000000000000000000000000000000000000000000000000000081526004016108ae90613fe6565b60405180910390fd5b8160025f8581526020019081526020015f205f6101000a81548173ffffffffffffffffffffffffffffffffffffffff021916908373ffffffffffffffffffffffffffffffffffffffff16021790555060035f8481526020019081526020015f205f6101000a81549073ffffffffffffffffffffffffffffffffffffffff02191690557f3f8ee816d96ec1e3e429e14ac26a5c0d65b3a69ea8ebf24ae1355129491185da838360405161096a929190614004565b60405180910390a1505050565b5f5f5f9054906101000a900473ffffffffffffffffffffffffffffffffffffffff1673ffffffffffffffffffffffffffffffffffffffff163373ffffffffffffffffffffffffffffffffffffffff1614610a06576040517f08c379a00000000000000000000000000000000000000000000000000000000081526004016109fd90614075565b60405180910390fd5b5f610a1a610a15865f1b611a5c565b611615565b14610a5a576040517f08c379a0000000000000000000000000000000000000000000000000000000008152600401610a51906140dd565b60405180910390fd5b5f610a66855f1b611a5c565b9050610a728187611b0b565b50610a87610a81865f1b6107ad565b82611b1e565b7fa6aba3681f0b734d4ad32f5f775ca94516f233a7593ba7b64b62ec40d99326eb8787878787604051610abe959493929190614137565b60405180910390a163150b7a0260e01b91505095945050505050565b5f5f610ae4611b84565b9050805f015f8481526020019081526020015f2060010154915050919050565b610b0d82610ada565b610b1681611bab565b610b208383611b0b565b50505050565b5f5f9054906101000a900473ffffffffffffffffffffffffffffffffffffffff1681565b610b52611b04565b73ffffffffffffffffffffffffffffffffffffffff168173ffffffffffffffffffffffffffffffffffffffff1614610bb6576040517f6697b23200000000000000000000000000000000000000000000000000000000815260040160405180910390fd5b610bc08282611bbf565b505050565b5f610bcf83611a5c565b9050610be281610bdd611b04565b611282565b610c21576040517f08c379a0000000000000000000000000000000000000000000000000000000008152600401610c1890613fe6565b60405180910390fd5b5f5f9054906101000a900473ffffffffffffffffffffffffffffffffffffffff1673ffffffffffffffffffffffffffffffffffffffff166389f27e1184846003806040518563ffffffff1660e01b8152600401610c81949392919061423c565b5f604051808303815f87803b158015610c98575f5ffd5b505af1158015610caa573d5f5f3e3d5ffd5b505050507ff3a99d20cc400f72479fcf3963eecdacd910566f7c6ea16cac104ff2d8b0835b8383604051610cdf929190614004565b60405180910390a1505050565b5f3073ffffffffffffffffffffffffffffffffffffffff165f5f9054906101000a900473ffffffffffffffffffffffffffffffffffffffff1673ffffffffffffffffffffffffffffffffffffffff16636352211e845f1c6040518263ffffffff1660e01b8152600401610d5f9190613e16565b602060405180830381865afa158015610d7a573d5f5f3e3d5ffd5b505050506040513d601f19601f82011682018060405250810190610d9e9190614293565b73ffffffffffffffffffffffffffffffffffffffff16148015610dd057505f610dce610dc9846107ad565b611615565b145b8015610deb57505f610de9610de484611a5c565b611615565b145b9050919050565b6003602052805f5260405f205f915054906101000a900473ffffffffffffffffffffffffffffffffffffffff1681565b5f610e2c846107ad565b9050610e3f81610e3a611b04565b611282565b80610e5157505f610e4f82611615565b145b610e90576040517f08c379a0000000000000000000000000000000000000000000000000000000008152600401610e879061432e565b60405180910390fd5b610e9b828585611bd2565b60015f9054906101000a900473ffffffffffffffffffffffffffffffffffffffff1673ffffffffffffffffffffffffffffffffffffffff16630af179d785856040518363ffffffff1660e01b8152600401610ef792919061438e565b5f604051808303815f87803b158015610f0e575f5ffd5b505af1158015610f20573d5f5f3e3d5ffd5b505050507f7a3353dc8171d4abae0af1dbefd143bd7e4f98a64f638f9931d1171f1f1ed3b98484604051610f5592919061438e565b60405180910390a150505050565b610f6b611d54565b610f7482611e3a565b610f7e8282611e4a565b5050565b5f610f8c82611a5c565b9050610f9f81610f9a611b04565b611282565b610fde576040517f08c379a0000000000000000000000000000000000000000000000000000000008152600401610fd590613fe6565b60405180910390fd5b5f73ffffffffffffffffffffffffffffffffffffffff1660035f8481526020019081526020015f205f9054906101000a900473ffffffffffffffffffffffffffffffffffffffff1673ffffffffffffffffffffffffffffffffffffffff160361107c576040517f08c379a000000000000000000000000000000000000000000000000000000000815260040161107390614406565b60405180910390fd5b60035f8381526020019081526020015f205f6101000a81549073ffffffffffffffffffffffffffffffffffffffff02191690557fa3505b7f8f9fe4ebfd34996e06f8a5955ea1da5a8bbd06a449ee2d0ef75f60e7826040516110de919061351c565b60405180910390a15050565b5f6110f3611f68565b7f360894a13ba1a3210667c828492db98dca3e2076cc3735a920a3ca505d382bbc5f1b905090565b60015f9054906101000a900473ffffffffffffffffffffffffffffffffffffffff1681565b5f6060805f5f5f60605f611152611fef565b90505f5f1b815f015414801561116d57505f5f1b8160010154145b6111ac576040517f08c379a00000000000000000000000000000000000000000000000000000000081526004016111a39061446e565b60405180910390fd5b6111b4612016565b6111bc6120b4565b46305f5f1b5f67ffffffffffffffff8111156111db576111da613870565b5b6040519080825280602002602001820160405280156112095781602001602082028036833780820191505090505b507f0f0000000000000000000000000000000000000000000000000000000000000095949392919097509750975097509750975097505090919293949596565b5f5f611253612152565b905061127983825f015f8781526020019081526020015f2061217990919063ffffffff16565b91505092915050565b5f5f61128c611b84565b9050805f015f8581526020019081526020015f205f015f8473ffffffffffffffffffffffffffffffffffffffff1673ffffffffffffffffffffffffffffffffffffffff1681526020019081526020015f205f9054906101000a900460ff1691505092915050565b5f5f1b81565b60605f611304612152565b9050611320815f015f8581526020019081526020015f20612190565b915050919050565b6040518060400160405280600581526020017f352e302e3000000000000000000000000000000000000000000000000000000081525081565b7f7f5908f8939dd1edced81f0554faf07cf34d21da35fe33a33e65bb6570d9d0bb81565b5f61138e6121af565b90505f815f0160089054906101000a900460ff161590505f825f015f9054906101000a900467ffffffffffffffff1690505f5f8267ffffffffffffffff161480156113d65750825b90505f60018367ffffffffffffffff1614801561140957505f3073ffffffffffffffffffffffffffffffffffffffff163b145b905081158015611417575080155b1561144e576040517ff92ee8a900000000000000000000000000000000000000000000000000000000815260040160405180910390fd5b6001855f015f6101000a81548167ffffffffffffffff021916908367ffffffffffffffff160217905550831561149b576001855f0160086101000a81548160ff0219169083151502179055505b6114a36121c2565b6114ab6121cc565b6114b36121d6565b6114bb6121e0565b6114c36121ea565b875f5f6101000a81548173ffffffffffffffffffffffffffffffffffffffff021916908373ffffffffffffffffffffffffffffffffffffffff1602179055508660015f6101000a81548173ffffffffffffffffffffffffffffffffffffffff021916908373ffffffffffffffffffffffffffffffffffffffff1602179055506115555f5f1b611550611b04565b611b0b565b506115807f6bfaea8652c984625c527c55f08cb003af6788a4ef38fc0d36162be4c7110af887611b0b565b5083156115db575f855f0160086101000a81548160ff0219169083151502179055507fc7f505b2f371ae2175ee4913f4499e1f2633a7b5936321eed1cdaeb6115181d260016040516115d291906144d8565b60405180910390a15b5050505050505050565b6002602052805f5260405f205f915054906101000a900473ffffffffffffffffffffffffffffffffffffffff1681565b5f5f61161f612152565b905061163b815f015f8581526020019081526020015f206121f4565b915050919050565b5f73ffffffffffffffffffffffffffffffffffffffff168273ffffffffffffffffffffffffffffffffffffffff16036116b1576040517f08c379a00000000000000000000000000000000000000000000000000000000081526004016116a89061453b565b60405180910390fd5b5f73ffffffffffffffffffffffffffffffffffffffff1660035f8581526020019081526020015f205f9054906101000a900473ffffffffffffffffffffffffffffffffffffffff1673ffffffffffffffffffffffffffffffffffffffff161461174f576040517f08c379a0000000000000000000000000000000000000000000000000000000008152600401611746906145a3565b60405180910390fd5b5f60025f8581526020019081526020015f205f9054906101000a900473ffffffffffffffffffffffffffffffffffffffff1690505f73ffffffffffffffffffffffffffffffffffffffff168173ffffffffffffffffffffffffffffffffffffffff16036117f1576040517f08c379a00000000000000000000000000000000000000000000000000000000081526004016117e89061460b565b60405180910390fd5b6117fd84828585612207565b7fe37f86dd47a3888493febe568db5e595d486cb0528ac9cef0027e84df3a9997884828560405161183093929190614629565b60405180910390a150505050565b61184782610ada565b61185081611bab565b61185a8383611bbf565b50505050565b7f6bfaea8652c984625c527c55f08cb003af6788a4ef38fc0d36162be4c7110af881565b5f61188e83611a5c565b90506118a18161189c611b04565b611282565b6118e0576040517f08c379a00000000000000000000000000000000000000000000000000000000081526004016118d7906146a8565b60405180910390fd5b60016118eb82611615565b1461192b576040517f08c379a000000000000000000000000000000000000000000000000000000000815260040161192290614710565b60405180910390fd5b5f61193d611938856107ad565b611615565b1461197d576040517f08c379a000000000000000000000000000000000000000000000000000000000815260040161197490614778565b60405180910390fd5b61198e81611989611b04565b611bbf565b505f5f9054906101000a900473ffffffffffffffffffffffffffffffffffffffff1673ffffffffffffffffffffffffffffffffffffffff1663f242432a3084865f1c60016040518563ffffffff1660e01b81526004016119f194939291906147e9565b5f604051808303815f87803b158015611a08575f5ffd5b505af1158015611a1a573d5f5f3e3d5ffd5b505050507f8c680a56c57bd6e1d3dd84ffcef228014ba8efa5c3f66f561634f963f4e64b218383604051611a4f929190614004565b60405180910390a1505050565b5f81604051602001611a6e9190614889565b604051602081830303815290604052805190602001209050919050565b5f7f5a05180f000000000000000000000000000000000000000000000000000000007bffffffffffffffffffffffffffffffffffffffffffffffffffffffff1916827bffffffffffffffffffffffffffffffffffffffffffffffffffffffff19161480611afd5750611afc82612323565b5b9050919050565b5f33905090565b5f611b16838361239c565b905092915050565b5f611b27611b84565b90505f611b3384610ada565b905082825f015f8681526020019081526020015f20600101819055508281857fbd79b86ffe0ab8e8776151514217cd7cacd52c909f66475c3af44e129f0b00ff60405160405180910390a450505050565b5f7f02dd7bc7dec4dceedda775e58dd541e08a116c6c53815c0bd028192f7b626800905090565b611bbc81611bb7611b04565b6123ec565b50565b5f611bca838361243d565b905092915050565b5f7f7f5908f8939dd1edced81f0554faf07cf34d21da35fe33a33e65bb6570d9d0bb838380519060200120604051602001611c0f939291906148ae565b6040516020818303038152906040528051906020012090505f611c318261248d565b90505f611c3e82876124a6565b90505f73ffffffffffffffffffffffffffffffffffffffff168173ffffffffffffffffffffffffffffffffffffffff1603611cae576040517f08c379a0000000000000000000000000000000000000000000000000000000008152600401611ca59061492d565b60405180910390fd5b60035f8681526020019081526020015f205f9054906101000a900473ffffffffffffffffffffffffffffffffffffffff1673ffffffffffffffffffffffffffffffffffffffff168173ffffffffffffffffffffffffffffffffffffffff1614611d4c576040517f08c379a0000000000000000000000000000000000000000000000000000000008152600401611d439061492d565b60405180910390fd5b505050505050565b7f000000000000000000000000000000000000000000000000000000000000000073ffffffffffffffffffffffffffffffffffffffff163073ffffffffffffffffffffffffffffffffffffffff161480611e0157507f000000000000000000000000000000000000000000000000000000000000000073ffffffffffffffffffffffffffffffffffffffff16611de86124d0565b73ffffffffffffffffffffffffffffffffffffffff1614155b15611e38576040517fe07c8dba00000000000000000000000000000000000000000000000000000000815260040160405180910390fd5b565b5f5f1b611e4681611bab565b5050565b8173ffffffffffffffffffffffffffffffffffffffff166352d1902d6040518163ffffffff1660e01b8152600401602060405180830381865afa925050508015611eb257506040513d601f19601f82011682018060405250810190611eaf919061495f565b60015b611ef357816040517f4c9c8ce3000000000000000000000000000000000000000000000000000000008152600401611eea9190613843565b60405180910390fd5b7f360894a13ba1a3210667c828492db98dca3e2076cc3735a920a3ca505d382bbc5f1b8114611f5957806040517faa1d49a4000000000000000000000000000000000000000000000000000000008152600401611f50919061351c565b60405180910390fd5b611f638383612523565b505050565b7f000000000000000000000000000000000000000000000000000000000000000073ffffffffffffffffffffffffffffffffffffffff163073ffffffffffffffffffffffffffffffffffffffff1614611fed576040517fe07c8dba00000000000000000000000000000000000000000000000000000000815260040160405180910390fd5b565b5f7fa16a46d94261c7517cc8ff89f61c0ce93598e3c849801011dee649a6a557d100905090565b60605f612021611fef565b9050806002018054612032906149b7565b80601f016020809104026020016040519081016040528092919081815260200182805461205e906149b7565b80156120a95780601f10612080576101008083540402835291602001916120a9565b820191905f5260205f20905b81548152906001019060200180831161208c57829003601f168201915b505050505091505090565b60605f6120bf611fef565b90508060030180546120d0906149b7565b80601f01602080910402602001604051908101604052809291908181526020018280546120fc906149b7565b80156121475780601f1061211e57610100808354040283529160200191612147565b820191905f5260205f20905b81548152906001019060200180831161212a57829003601f168201915b505050505091505090565b5f7fc1f6fe24621ce81ec5827caf0253cadb74709b061630e6b55e82371705932000905090565b5f612186835f0183612595565b5f1c905092915050565b60605f61219e835f016125bc565b905060608190508092505050919050565b5f5f6121b9612615565b90508091505090565b6121ca61263e565b565b6121d461263e565b565b6121de61263e565b565b6121e861263e565b565b6121f261263e565b565b5f612200825f0161267e565b9050919050565b5f60026122138561268d565b61221e875f1c6126ba565b6122278661268d565b60405160200161223993929190614ad1565b6040516020818303038152906040526040516122559190614b51565b602060405180830381855afa158015612270573d5f5f3e3d5ffd5b5050506040513d601f19601f82011682018060405250810190612293919061495f565b90505f6122a082846124a6565b90506122cc7f6bfaea8652c984625c527c55f08cb003af6788a4ef38fc0d36162be4c7110af8826123ec565b8360035f8881526020019081526020015f205f6101000a81548173ffffffffffffffffffffffffffffffffffffffff021916908373ffffffffffffffffffffffffffffffffffffffff160217905550505050505050565b5f7f7965db0b000000000000000000000000000000000000000000000000000000007bffffffffffffffffffffffffffffffffffffffffffffffffffffffff1916827bffffffffffffffffffffffffffffffffffffffffffffffffffffffff191614806123955750612394826126d8565b5b9050919050565b5f5f6123a6612152565b90505f6123b38585612741565b905080156123e1576123df84835f015f8881526020019081526020015f2061283990919063ffffffff16565b505b809250505092915050565b6123f68282611282565b6124395780826040517fe2517d3f000000000000000000000000000000000000000000000000000000008152600401612430929190614b67565b60405180910390fd5b5050565b5f5f612447612152565b90505f6124548585612866565b905080156124825761248084835f015f8881526020019081526020015f2061295e90919063ffffffff16565b505b809250505092915050565b5f61249f61249961298b565b83612999565b9050919050565b5f5f5f5f6124b486866129d9565b9250925092506124c48282612a2e565b82935050505092915050565b5f6124fc7f360894a13ba1a3210667c828492db98dca3e2076cc3735a920a3ca505d382bbc5f1b612b90565b5f015f9054906101000a900473ffffffffffffffffffffffffffffffffffffffff16905090565b61252c82612b99565b8173ffffffffffffffffffffffffffffffffffffffff167fbc7cd75a20ee27fd9adebab32041f755214dbc6bffa90cc0225b39da2e5c2d3b60405160405180910390a25f81511115612588576125828282612c62565b50612591565b612590612ce2565b5b5050565b5f825f0182815481106125ab576125aa614b8e565b5b905f5260205f200154905092915050565b6060815f0180548060200260200160405190810160405280929190818152602001828054801561260957602002820191905f5260205f20905b8154815260200190600101908083116125f5575b50505050509050919050565b5f7ff0c57e16840df040f15088dc2f81fe391c3923bec73e23a9662efc9c229c6a005f1b905090565b612646612d1e565b61267c576040517fd7e6bcf800000000000000000000000000000000000000000000000000000000815260040160405180910390fd5b565b5f815f01805490509050919050565b60606126b38273ffffffffffffffffffffffffffffffffffffffff16601460ff16612d3c565b9050919050565b60606126d18260016126cb85612f7a565b01612d3c565b9050919050565b5f7f01ffc9a7000000000000000000000000000000000000000000000000000000007bffffffffffffffffffffffffffffffffffffffffffffffffffffffff1916827bffffffffffffffffffffffffffffffffffffffffffffffffffffffff1916149050919050565b5f5f61274b611b84565b90506127578484611282565b61282e576001815f015f8681526020019081526020015f205f015f8573ffffffffffffffffffffffffffffffffffffffff1673ffffffffffffffffffffffffffffffffffffffff1681526020019081526020015f205f6101000a81548160ff0219169083151502179055506127ca611b04565b73ffffffffffffffffffffffffffffffffffffffff168373ffffffffffffffffffffffffffffffffffffffff16857f2f8788117e7eff1d82e926ec794901d17c78024a50270940304540a733656f0d60405160405180910390a46001915050612833565b5f9150505b92915050565b5f61285e835f018373ffffffffffffffffffffffffffffffffffffffff165f1b613008565b905092915050565b5f5f612870611b84565b905061287c8484611282565b15612953575f815f015f8681526020019081526020015f205f015f8573ffffffffffffffffffffffffffffffffffffffff1673ffffffffffffffffffffffffffffffffffffffff1681526020019081526020015f205f6101000a81548160ff0219169083151502179055506128ef611b04565b73ffffffffffffffffffffffffffffffffffffffff168373ffffffffffffffffffffffffffffffffffffffff16857ff6391f5c32d9c69d2a47ea670b442974b53935d1edc7fd64eb21e047a839171b60405160405180910390a46001915050612958565b5f9150505b92915050565b5f612983835f018373ffffffffffffffffffffffffffffffffffffffff165f1b61306f565b905092915050565b5f61299461316b565b905090565b5f6040517f190100000000000000000000000000000000000000000000000000000000000081528360028201528260228201526042812091505092915050565b5f5f5f6041845103612a19575f5f5f602087015192506040870151915060608701515f1a9050612a0b888285856131ce565b955095509550505050612a27565b5f600285515f1b9250925092505b9250925092565b5f6003811115612a4157612a40614183565b5b826003811115612a5457612a53614183565b5b0315612b8c5760016003811115612a6e57612a6d614183565b5b826003811115612a8157612a80614183565b5b03612ab8576040517ff645eedf00000000000000000000000000000000000000000000000000000000815260040160405180910390fd5b60026003811115612acc57612acb614183565b5b826003811115612adf57612ade614183565b5b03612b2357805f1c6040517ffce698f7000000000000000000000000000000000000000000000000000000008152600401612b1a9190613e16565b60405180910390fd5b600380811115612b3657612b35614183565b5b826003811115612b4957612b48614183565b5b03612b8b57806040517fd78bce0c000000000000000000000000000000000000000000000000000000008152600401612b82919061351c565b60405180910390fd5b5b5050565b5f819050919050565b5f8173ffffffffffffffffffffffffffffffffffffffff163b03612bf457806040517f4c9c8ce3000000000000000000000000000000000000000000000000000000008152600401612beb9190613843565b60405180910390fd5b80612c207f360894a13ba1a3210667c828492db98dca3e2076cc3735a920a3ca505d382bbc5f1b612b90565b5f015f6101000a81548173ffffffffffffffffffffffffffffffffffffffff021916908373ffffffffffffffffffffffffffffffffffffffff16021790555050565b60605f5f8473ffffffffffffffffffffffffffffffffffffffff1684604051612c8b9190614b51565b5f60405180830381855af49150503d805f8114612cc3576040519150601f19603f3d011682016040523d82523d5f602084013e612cc8565b606091505b5091509150612cd88583836132b5565b9250505092915050565b5f341115612d1c576040517fb398979f00000000000000000000000000000000000000000000000000000000815260040160405180910390fd5b565b5f612d276121af565b5f0160089054906101000a900460ff16905090565b60605f8390505f6002846002612d529190614be8565b612d5c9190614c29565b67ffffffffffffffff811115612d7557612d74613870565b5b6040519080825280601f01601f191660200182016040528015612da75781602001600182028036833780820191505090505b5090507f3000000000000000000000000000000000000000000000000000000000000000815f81518110612dde57612ddd614b8e565b5b60200101907effffffffffffffffffffffffffffffffffffffffffffffffffffffffffffff191690815f1a9053507f780000000000000000000000000000000000000000000000000000000000000081600181518110612e4157612e40614b8e565b5b60200101907effffffffffffffffffffffffffffffffffffffffffffffffffffffffffffff191690815f1a9053505f6001856002612e7f9190614be8565b612e899190614c29565b90505b6001811115612f28577f3031323334353637383961626364656600000000000000000000000000000000600f841660108110612ecb57612eca614b8e565b5b1a60f81b828281518110612ee257612ee1614b8e565b5b60200101907effffffffffffffffffffffffffffffffffffffffffffffffffffffffffffff191690815f1a905350600483901c925080612f2190614c5c565b9050612e8c565b505f8214612f6f5784846040517fe22e27eb000000000000000000000000000000000000000000000000000000008152600401612f66929190614c83565b60405180910390fd5b809250505092915050565b5f6007612f986fffffffffffffffffffffffffffffffff8411613342565b901b90506006612fb467ffffffffffffffff8385901c11613342565b901b811790506005612fce63ffffffff8385901c11613342565b901b811790506004612fe661ffff8385901c11613342565b901b81179050612ffb60ff8284901c11613342565b600382901c179050919050565b5f613013838361334d565b61306557825f0182908060018154018082558091505060019003905f5260205f20015f9091909190915055825f0180549050836001015f8481526020019081526020015f208190555060019050613069565b5f90505b92915050565b5f5f836001015f8481526020019081526020015f205490505f8114613160575f60018261309c9190614caa565b90505f6001865f01805490506130b29190614caa565b9050808214613118575f865f0182815481106130d1576130d0614b8e565b5b905f5260205f200154905080875f0184815481106130f2576130f1614b8e565b5b905f5260205f20018190555083876001015f8381526020019081526020015f2081905550505b855f0180548061312b5761312a614cdd565b5b600190038181905f5260205f20015f90559055856001015f8681526020019081526020015f205f905560019350505050613165565b5f9150505b92915050565b5f7f8b73c3c69bb8fe3d512ecc4cf759cc79239f7b179b0ffacaa9a75d522b39400f61319561336d565b61319d6133e3565b46306040516020016131b3959493929190614d0a565b60405160208183030381529060405280519060200120905090565b5f5f5f7f7fffffffffffffffffffffffffffffff5d576e7357a4501ddfe92f46681b20a0845f1c111561320a575f6003859250925092506132ab565b5f6001888888886040515f815260200160405260405161322d9493929190614d76565b6020604051602081039080840390855afa15801561324d573d5f5f3e3d5ffd5b5050506020604051035190505f73ffffffffffffffffffffffffffffffffffffffff168173ffffffffffffffffffffffffffffffffffffffff160361329e575f60015f5f1b935093509350506132ab565b805f5f5f1b935093509350505b9450945094915050565b6060826132ca576132c58261345a565b61333a565b5f82511480156132f057505f8473ffffffffffffffffffffffffffffffffffffffff163b145b1561333257836040517f9996b3150000000000000000000000000000000000000000000000000000000081526004016133299190613843565b60405180910390fd5b81905061333b565b5b9392505050565b5f8115159050919050565b5f5f836001015f8481526020019081526020015f20541415905092915050565b5f5f613377611fef565b90505f613382612016565b90505f8151111561339e578080519060200120925050506133e0565b5f825f015490505f5f1b81146133b9578093505050506133e0565b7fc5d2460186f7233c927e7db2dcc703c0e500b653ca82273b7bfad8045d85a47093505050505b90565b5f5f6133ed611fef565b90505f6133f86120b4565b90505f8151111561341457808051906020012092505050613457565b5f826001015490505f5f1b811461343057809350505050613457565b7fc5d2460186f7233c927e7db2dcc703c0e500b653ca82273b7bfad8045d85a47093505050505b90565b5f8151111561346c5780518082602001fd5b6040517fd6bda27500000000000000000000000000000000000000000000000000000000815260040160405180910390fd5b5f604051905090565b5f5ffd5b5f5ffd5b5f819050919050565b6134c1816134af565b81146134cb575f5ffd5b50565b5f813590506134dc816134b8565b92915050565b5f602082840312156134f7576134f66134a7565b5b5f613504848285016134ce565b91505092915050565b613516816134af565b82525050565b5f60208201905061352f5f83018461350d565b92915050565b5f7fffffffff0000000000000000000000000000000000000000000000000000000082169050919050565b61356981613535565b8114613573575f5ffd5b50565b5f8135905061358481613560565b92915050565b5f6020828403121561359f5761359e6134a7565b5b5f6135ac84828501613576565b91505092915050565b5f8115159050919050565b6135c9816135b5565b82525050565b5f6020820190506135e25f8301846135c0565b92915050565b5f73ffffffffffffffffffffffffffffffffffffffff82169050919050565b5f613611826135e8565b9050919050565b61362181613607565b811461362b575f5ffd5b50565b5f8135905061363c81613618565b92915050565b5f5f60408385031215613658576136576134a7565b5b5f613665858286016134ce565b92505060206136768582860161362e565b9150509250929050565b5f819050919050565b61369281613680565b811461369c575f5ffd5b50565b5f813590506136ad81613689565b92915050565b5f5ffd5b5f5ffd5b5f5ffd5b5f5f83601f8401126136d4576136d36136b3565b5b8235905067ffffffffffffffff8111156136f1576136f06136b7565b5b60208301915083600182028301111561370d5761370c6136bb565b5b9250929050565b5f5f5f5f5f6080868803121561372d5761372c6134a7565b5b5f61373a8882890161362e565b955050602061374b8882890161362e565b945050604061375c8882890161369f565b935050606086013567ffffffffffffffff81111561377d5761377c6134ab565b5b613789888289016136bf565b92509250509295509295909350565b6137a181613535565b82525050565b5f6020820190506137ba5f830184613798565b92915050565b5f819050919050565b5f6137e36137de6137d9846135e8565b6137c0565b6135e8565b9050919050565b5f6137f4826137c9565b9050919050565b5f613805826137ea565b9050919050565b613815816137fb565b82525050565b5f60208201905061382e5f83018461380c565b92915050565b61383d81613607565b82525050565b5f6020820190506138565f830184613834565b92915050565b5f5ffd5b5f601f19601f8301169050919050565b7f4e487b71000000000000000000000000000000000000000000000000000000005f52604160045260245ffd5b6138a682613860565b810181811067ffffffffffffffff821117156138c5576138c4613870565b5b80604052505050565b5f6138d761349e565b90506138e3828261389d565b919050565b5f67ffffffffffffffff82111561390257613901613870565b5b61390b82613860565b9050602081019050919050565b828183375f83830152505050565b5f613938613933846138e8565b6138ce565b9050828152602081018484840111156139545761395361385c565b5b61395f848285613918565b509392505050565b5f82601f83011261397b5761397a6136b3565b5b813561398b848260208601613926565b91505092915050565b5f5f5f606084860312156139ab576139aa6134a7565b5b5f6139b8868287016134ce565b935050602084013567ffffffffffffffff8111156139d9576139d86134ab565b5b6139e586828701613967565b925050604084013567ffffffffffffffff811115613a0657613a056134ab565b5b613a1286828701613967565b9150509250925092565b5f5f60408385031215613a3257613a316134a7565b5b5f613a3f8582860161362e565b925050602083013567ffffffffffffffff811115613a6057613a5f6134ab565b5b613a6c85828601613967565b9150509250929050565b5f613a80826137ea565b9050919050565b613a9081613a76565b82525050565b5f602082019050613aa95f830184613a87565b92915050565b5f7fff0000000000000000000000000000000000000000000000000000000000000082169050919050565b613ae381613aaf565b82525050565b5f81519050919050565b5f82825260208201905092915050565b8281835e5f83830152505050565b5f613b1b82613ae9565b613b258185613af3565b9350613b35818560208601613b03565b613b3e81613860565b840191505092915050565b613b5281613680565b82525050565b5f81519050919050565b5f82825260208201905092915050565b5f819050602082019050919050565b613b8a81613680565b82525050565b5f613b9b8383613b81565b60208301905092915050565b5f602082019050919050565b5f613bbd82613b58565b613bc78185613b62565b9350613bd283613b72565b805f5b83811015613c02578151613be98882613b90565b9750613bf483613ba7565b925050600181019050613bd5565b5085935050505092915050565b5f60e082019050613c225f83018a613ada565b8181036020830152613c348189613b11565b90508181036040830152613c488188613b11565b9050613c576060830187613b49565b613c646080830186613834565b613c7160a083018561350d565b81810360c0830152613c838184613bb3565b905098975050505050505050565b5f5f60408385031215613ca757613ca66134a7565b5b5f613cb4858286016134ce565b9250506020613cc58582860161369f565b9150509250929050565b5f81519050919050565b5f82825260208201905092915050565b5f819050602082019050919050565b613d0181613607565b82525050565b5f613d128383613cf8565b60208301905092915050565b5f602082019050919050565b5f613d3482613ccf565b613d3e8185613cd9565b9350613d4983613ce9565b805f5b83811015613d79578151613d608882613d07565b9750613d6b83613d1e565b925050600181019050613d4c565b5085935050505092915050565b5f6020820190508181035f830152613d9e8184613d2a565b905092915050565b5f6020820190508181035f830152613dbe8184613b11565b905092915050565b5f5f5f60608486031215613ddd57613ddc6134a7565b5b5f613dea8682870161362e565b9350506020613dfb8682870161362e565b9250506040613e0c8682870161362e565b9150509250925092565b5f602082019050613e295f830184613b49565b92915050565b5f5f5f60608486031215613e4657613e456134a7565b5b5f613e53868287016134ce565b9350506020613e648682870161362e565b925050604084013567ffffffffffffffff811115613e8557613e846134ab565b5b613e9186828701613967565b9150509250925092565b5f81905092915050565b7f444f4d41494e5f4d414e414745525f524f4c455f0000000000000000000000005f82015250565b5f613ed9601483613e9b565b9150613ee482613ea5565b601482019050919050565b5f819050919050565b613f09613f04826134af565b613eef565b82525050565b5f613f1982613ecd565b9150613f258284613ef8565b60208201915081905092915050565b7f444d3a20696e76616c6964206b6d7320636f6e747261637400000000000000005f82015250565b5f613f68601883613af3565b9150613f7382613f34565b602082019050919050565b5f6020820190508181035f830152613f9581613f5c565b9050919050565b7f444d3a2073656e646572206e6f74206f776e65720000000000000000000000005f82015250565b5f613fd0601483613af3565b9150613fdb82613f9c565b602082019050919050565b5f6020820190508181035f830152613ffd81613fc4565b9050919050565b5f6040820190506140175f83018561350d565b6140246020830184613834565b9392505050565b7f444d3a206e6f7420646f6d61696e20636f6e74726f6c6c6572000000000000005f82015250565b5f61405f601983613af3565b915061406a8261402b565b602082019050919050565b5f6020820190508181035f83015261408c81614053565b9050919050565b7f444d3a20646f6d61696e20616c7265616479206f776e656400000000000000005f82015250565b5f6140c7601883613af3565b91506140d282614093565b602082019050919050565b5f6020820190508181035f8301526140f4816140bb565b9050919050565b5f82825260208201905092915050565b5f61411683856140fb565b9350614123838584613918565b61412c83613860565b840190509392505050565b5f60808201905061414a5f830188613834565b6141576020830187613834565b6141646040830186613b49565b818103606083015261417781848661410b565b90509695505050505050565b7f4e487b71000000000000000000000000000000000000000000000000000000005f52602160045260245ffd5b600481106141c1576141c0614183565b5b50565b5f8190506141d1826141b0565b919050565b5f6141e0826141c4565b9050919050565b6141f0816141d6565b82525050565b6004811061420757614206614183565b5b50565b5f819050614217826141f6565b919050565b5f6142268261420a565b9050919050565b6142368161421c565b82525050565b5f60808201905061424f5f83018761350d565b61425c6020830186613834565b61426960408301856141e7565b614276606083018461422d565b95945050505050565b5f8151905061428d81613618565b92915050565b5f602082840312156142a8576142a76134a7565b5b5f6142b58482850161427f565b91505092915050565b7f416363657373436f6e74726f6c3a2073656e646572206d7573742062652061205f8201527f6d616e6167657220746f2073657420444e53207265636f726473000000000000602082015250565b5f614318603a83613af3565b9150614323826142be565b604082019050919050565b5f6020820190508181035f8301526143458161430c565b9050919050565b5f81519050919050565b5f6143608261434c565b61436a81856140fb565b935061437a818560208601613b03565b61438381613860565b840191505092915050565b5f6040820190506143a15f83018561350d565b81810360208301526143b38184614356565b90509392505050565b7f444d3a206b6d73206b6579206e6f7420736574000000000000000000000000005f82015250565b5f6143f0601383613af3565b91506143fb826143bc565b602082019050919050565b5f6020820190508181035f83015261441d816143e4565b9050919050565b7f4549503731323a20556e696e697469616c697a656400000000000000000000005f82015250565b5f614458601583613af3565b915061446382614424565b602082019050919050565b5f6020820190508181035f8301526144858161444c565b9050919050565b5f819050919050565b5f67ffffffffffffffff82169050919050565b5f6144c26144bd6144b88461448c565b6137c0565b614495565b9050919050565b6144d2816144a8565b82525050565b5f6020820190506144eb5f8301846144c9565b92915050565b7f444d3a20696e76616c6964206b6d73206b6579000000000000000000000000005f82015250565b5f614525601383613af3565b9150614530826144f1565b602082019050919050565b5f6020820190508181035f83015261455281614519565b9050919050565b7f444d3a206b6d73206b657920616c7265616479207365740000000000000000005f82015250565b5f61458d601783613af3565b915061459882614559565b602082019050919050565b5f6020820190508181035f8301526145ba81614581565b9050919050565b7f444d3a206b6d7320636f6e7472616374206e6f742073657400000000000000005f82015250565b5f6145f5601883613af3565b9150614600826145c1565b602082019050919050565b5f6020820190508181035f830152614622816145e9565b9050919050565b5f60608201905061463c5f83018661350d565b6146496020830185613834565b6146566040830184613834565b949350505050565b7f444d3a2073656e646572206e6f7420646f6d61696e206f776e657200000000005f82015250565b5f614692601b83613af3565b915061469d8261465e565b602082019050919050565b5f6020820190508181035f8301526146bf81614686565b9050919050565b7f444d3a206f74686572206f776e65722070726573656e740000000000000000005f82015250565b5f6146fa601783613af3565b9150614705826146c6565b602082019050919050565b5f6020820190508181035f830152614727816146ee565b9050919050565b7f444d3a20646f6d61696e206d616e616765722070726573656e740000000000005f82015250565b5f614762601a83613af3565b915061476d8261472e565b602082019050919050565b5f6020820190508181035f83015261478f81614756565b9050919050565b5f6147b06147ab6147a68461448c565b6137c0565b613680565b9050919050565b6147c081614796565b82525050565b50565b5f6147d45f836140fb565b91506147df826147c6565b5f82019050919050565b5f60a0820190506147fc5f830187613834565b6148096020830186613834565b6148166040830185613b49565b61482360608301846147b7565b8181036080830152614834816147c9565b905095945050505050565b7f444f4d41494e5f4f574e45525f524f4c455f00000000000000000000000000005f82015250565b5f614873601283613e9b565b915061487e8261483f565b601282019050919050565b5f61489382614867565b915061489f8284613ef8565b60208201915081905092915050565b5f6060820190506148c15f83018661350d565b6148ce602083018561350d565b6148db604083018461350d565b949350505050565b7f444d3a20696e76616c6964207369676e617475726500000000000000000000005f82015250565b5f614917601583613af3565b9150614922826148e3565b602082019050919050565b5f6020820190508181035f8301526149448161490b565b9050919050565b5f81519050614959816134b8565b92915050565b5f60208284031215614974576149736134a7565b5b5f6149818482850161494b565b91505092915050565b7f4e487b71000000000000000000000000000000000000000000000000000000005f52602260045260245ffd5b5f60028204905060018216806149ce57607f821691505b6020821081036149e1576149e061498a565b5b50919050565b7f2f6465726976652f736563703235366b312f616464726573732f6574686572655f8201527f756d3f616464726573733d000000000000000000000000000000000000000000602082015250565b5f614a41602b83613e9b565b9150614a4c826149e7565b602b82019050919050565b5f614a6182613ae9565b614a6b8185613e9b565b9350614a7b818560208601613b03565b80840191505092915050565b7f26706174683d444e532d5245434f52442d5349474e45522d00000000000000005f82015250565b5f614abb601883613e9b565b9150614ac682614a87565b601882019050919050565b5f614adb82614a35565b9150614ae78286614a57565b9150614af282614aaf565b9150614afe8285614a57565b9150614b0a8284614a57565b9150819050949350505050565b5f81905092915050565b5f614b2b8261434c565b614b358185614b17565b9350614b45818560208601613b03565b80840191505092915050565b5f614b5c8284614b21565b915081905092915050565b5f604082019050614b7a5f830185613834565b614b87602083018461350d565b9392505050565b7f4e487b71000000000000000000000000000000000000000000000000000000005f52603260045260245ffd5b7f4e487b71000000000000000000000000000000000000000000000000000000005f52601160045260245ffd5b5f614bf282613680565b9150614bfd83613680565b9250828202614c0b81613680565b91508282048414831517614c2257614c21614bbb565b5b5092915050565b5f614c3382613680565b9150614c3e83613680565b9250828201905080821115614c5657614c55614bbb565b5b92915050565b5f614c6682613680565b91505f8203614c7857614c77614bbb565b5b600182039050919050565b5f604082019050614c965f830185613b49565b614ca36020830184613b49565b9392505050565b5f614cb482613680565b9150614cbf83613680565b9250828203905081811115614cd757614cd6614bbb565b5b92915050565b7f4e487b71000000000000000000000000000000000000000000000000000000005f52603160045260245ffd5b5f60a082019050614d1d5f83018861350d565b614d2a602083018761350d565b614d37604083018661350d565b614d446060830185613b49565b614d516080830184613834565b9695505050505050565b5f60ff82169050919050565b614d7081614d5b565b82525050565b5f608082019050614d895f83018761350d565b614d966020830186614d67565b614da3604083018561350d565b614db0606083018461350d565b9594505050505056fea264697066735822122096f965c86473abf2645be51694ac1ecdd8bf9042a5b2b6438dbb5b8ad430527164736f6c634300081d0033",
        "linkReferences": {}
    },
    "methodIdentifiers": {
        "DEFAULT_ADMIN_ROLE()": "a217fddf",
        "DNSResolver()": "6f0cfab6",
        "ROOT_KMS_KEY_ROLE()": "db63689e",
        "SET_RECORDS_TYPEHASH()": "b6c4f368",
        "UPGRADE_INTERFACE_VERSION()": "ad3cb1cc",
        "domainController()": "3222a7c7",
        "eip712Domain()": "84b0196e",
        "getDomainManagerRole(bytes32)": "014c8151",
        "getDomainOwnerRole(bytes32)": "eaafa7dd",
        "getRoleAdmin(bytes32)": "248a9ca3",
        "getRoleMember(bytes32,uint256)": "9010d07c",
        "getRoleMemberCount(bytes32)": "ca15c873",
        "getRoleMembers(bytes32)": "a3246ad3",
        "grantRole(bytes32,address)": "2f2ff15d",
        "hasRole(bytes32,address)": "91d14854",
        "initialize(address,address,address)": "c0c53b8b",
        "isDomainEncumbered(bytes32)": "3cf78c55",
        "kmsContracts(bytes32)": "c98052aa",
        "kmsKeys(bytes32)": "4797cf04",
        "onERC721Received(address,address,uint256,bytes)": "150b7a02",
        "proxiableUUID()": "52d1902d",
        "removeKMSKey(bytes32)": "502f1b53",
        "renounceRole(bytes32,address)": "36568abe",
        "retrieveDomain(bytes32,address)": "e688d714",
        "revokeRole(bytes32,address)": "d547741f",
        "setDNSRecords(bytes32,bytes,bytes)": "4af4527f",
        "setKMSContract(bytes32,address)": "0b75af7d",
        "setKMSKey(bytes32,address,bytes)": "ce9b19f2",
        "setWhoIsDelegatee(bytes32,address)": "374c364e",
        "supportsInterface(bytes4)": "01ffc9a7",
        "upgradeToAndCall(address,bytes)": "4f1ef286"
    },
    "id": 53
}